:100000000C9434000C943E000C943E000C943E0082
:100010000C943E000C943E000C943E000C943E0068
:100020000C943E000C943E000C943E000C943E0058
:100030000C943E000C943E000C943E000C943E0048
:100040000C943E000C943E000C9470000C943E0006
:100050000C943E000C943E000C943E000C943E0028
:100060000C943E000C943E0011241FBECFEFD8E04C
:10007000DEBFCDBF0E9440000C9491000C940000A4
:10008000DF93CF93CDB7DEB70E945A007894E4E2B5
:10009000F0E081E08083E5E2F0E01082A5E2B0E0EC
:1000A000E5E2F0E0908181E089278C93E5E2F0E0E1
:1000B0001082F4CFDF93CF93CDB7DEB7E5ECF0E05D
:1000C0001082E4ECF0E080E18083E1ECF0E088E98C
:1000D0008083E2ECF0E08EE08083CF91DF910895A1
:1000E0001F920F920FB60F9211248F93EF93FF93ED
:1000F000DF93CF930F92CDB7DEB7E6ECF0E08081CF
:100100008983E6ECF0E089818F5F80830F90CF9147
:10011000DF91FF91EF918F910F900FBE0F901F9085
:060120001895F894FFCFD2
:00000001FF
