:100000000C9434000C9446000C9446000C9446006A
:100010000C9446000C9446000C9446000C94460048
:100020000C9446000C9446000C9446000C94460038
:100030000C9446000C9446000C94FF000C9446006F
:100040000C9414010C9446000C9446000C94460049
:100050000C9446000C9446000C9446000C94460008
:100060000C9446000C94460011241FBECFEFD8E03C
:10007000DEBFCDBF11E0A0E0B1E001C01D92A13014
:10008000B107E1F70E9466000C9424010C94000073
:10009000DF93CF930F92CDB7DEB789831092000123
:1000A000E7E4F0E089818083E6E4F0E01082EEE6A8
:1000B000F0E082E08083809100018823E1F3EEE6A6
:1000C000F0E010820F90CF91DF910895DF93CF93EE
:1000D000CDB7DEB7E4E2F0E080E28083E7E4F0E071
:1000E0008FEF8083E4E4F0E01082E5E4F0E085E067
:1000F0008083E5E3F0E083E08083EEE6F0E01082C9
:10010000E5E3F0E083E080837894E5E2F0E080E2EC
:10011000808380ED0E94480080ED0E94480080EDC1
:100120000E94480080ED0E94480080ED0E94480037
:1001300080ED0E94480080ED0E94480080ED0E9402
:10014000480080ED0E94480080ED0E94480080ED4C
:100150000E94480080ED0E94480080ED0E94480007
:1001600080ED0E94480080ED0E94480080ED0E94D2
:10017000480080ED0E94480080ED0E94480080ED1C
:100180000E944800E5E2F0E0108280ED0E94480005
:1001900080ED0E94480080ED0E94480080ED0E94A2
:1001A000480080ED0E94480080ED0E94480080EDEC
:1001B0000E94480080ED0E94480080ED0E944800A7
:1001C00080ED0E94480080ED0E94480080ED0E9472
:1001D000480080ED0E94480080ED0E94480080EDBC
:1001E0000E94480080ED0E94480080ED0E94480077
:1001F00080ED0E94480080ED0E94480086CF1F924B
:100200000F920FB60F9211248F93DF93CF93CDB738
:10021000DEB781E080930001CF91DF918F910F9045
:100220000FBE0F901F9018951F920F920FB60F924E
:100230001124DF93CF93CDB7DEB7CF91DF910F902D
:0C0240000FBE0F901F901895F894FFCF90
:00000001FF
