:100000000C9434000C9451000C9451000C94510049
:100010000C9451000C9451000C9451000C9451001C
:100020000C9451000C9451000C9451000C9451000C
:100030000C9451000C9451000C9451000C945100FC
:100040000C94E7030C9451000C9451000C94510053
:100050000C9451000C9451000C9451000C945100DC
:100060000C9451000C94510011241FBECFEFD8E026
:10007000DEBFCDBF12E0A8E0B2E001C01D92AC38F7
:10008000B107E1F712E0A0E0B1E0E8E0F9E002C07A
:1000900005900D92A830B107D9F70E9433040C9453
:1000A00082040C940000A8E1B0E0E9E5F0E00C94D3
:1000B000530469837A838B839C832D833E834F8390
:1000C0005887B9E0EB2EF12CEC0EFD1ECE01019607
:1000D000B7010E94F0028E010F5E1F4FCE01059600
:1000E000B8010E94F0022985223008F47EC03989C7
:1000F000323010F4B8017CC08A859A8989278A87B2
:10010000243011F0223031F4231709F06EC060E082
:1001100071E06EC0343039F41D861E861F86188A41
:100120001C861B8604C0323021F484E08987B70125
:100130005FC02B853C858B899C89281B390B3C87AC
:100140002B87ED84FE840F851889AD88BE88CF8803
:10015000D88CEA14FB040C051D0540F4EE0CFF1CC2
:10016000001F111F215030403C872B8720E030E0DA
:1001700040E050E080E090E0A0E0B0E460E070E0BB
:10018000EA14FB040C051D0540F0282B392B4A2BE3
:100190005B2BEA18FB080C091D09B695A7959795E6
:1001A0008795EE0CFF1C001F111F6F5F7F4F6F3193
:1001B000710531F7DA01C9018F779070A070B070C6
:1001C00080349105A105B10561F427FD0AC0E11451
:1001D000F1040105110529F0205C3F4F4F4F5F4F9F
:1001E00020782D873E874F87588BBE01675F7F4FF2
:1001F000CB010E941B026896EAE00C946F04ACE00D
:10020000B0E0E5E0F1E00C945B0469837A838B83D2
:100210009C83CE010196BE016B5F7F4F0E94F0026E
:100220008D81823061F1823050F1843021F48E81F1
:10023000882351F12EC02F81388537FD20C06E8173
:100240002F3131051CF06623F9F023C08EE190E0D8
:10025000821B930B29853A854B855C8504C0569596
:100260004795379527958A95D2F76623B1F0509533
:100270004095309521953F4F4F4F5F4F0EC020E086
:1002800030E040E050E009C02FEF3FEF4FEF5FE775
:1002900004C020E030E040E050E8B901CA012C96EB
:1002A000E2E00C947704A8E0B0E0E9E5F1E00C941A
:1002B00053047B018C01611571058105910519F4C9
:1002C00082E0898360C083E089838EE1C82ED12CCF
:1002D000DC82CB82ED82FE820F831887C801B701D2
:1002E0000E94CC01FC013197F7FF3BC02227332746
:1002F0002E1B3F0B57016801022E04C0D694C794F1
:10030000B794A7940A94D2F740E050E060E070E020
:1003100081E090E0A0E0B0E004C0880F991FAA1F20
:10032000BB1F2A95D2F70197A109B1098E219F2100
:10033000A023B1230097A105B10521F041E050E0D1
:1003400060E070E04A295B296C297D294D835E833A
:100350006F8378878EE190E08E1B9F0B9C838B834D
:1003600012C0309781F00E2E04C0EE0CFF1C001F4F
:10037000111F0A94D2F7ED82FE820F831887CE1ADE
:10038000DF0ADC82CB821A82CE0101960E941B0218
:100390002896EAE00C946F04EF92FF920F931F935C
:1003A0007B018C0180E0E81680E0F80681E0080718
:1003B00080E0180788F48FEFE816F10401051105B5
:1003C00031F028F088E090E0A0E0B0E017C080E0D5
:1003D00090E0A0E0B0E012C080E0E81680E0F8060F
:1003E00080E0080781E0180728F088E190E0A0E0AD
:1003F000B0E004C080E190E0A0E0B0E020E230E0B6
:1004000040E050E0281B390B4A0B5B0B04C01695EB
:100410000795F794E7948A95D2F7F701E85FFE4FC6
:100420008081281B310941095109C9011F910F9190
:10043000FF90EF900895DF92EF92FF920F931F933A
:10044000FC01E480F58006811781D18080818230B3
:1004500048F480E090E0A0E1B0E0E82AF92A0A2B15
:100460001B2BA5C0843009F49FC0823021F4EE24F8
:10047000FF24870105C0E114F1040105110519F4F9
:10048000E0E0F0E096C0628173819FEF6238790707
:100490000CF05BC022E83FEF261B370B2A313105F9
:1004A0002CF020E030E040E050E02AC0B801A70185
:1004B000022E04C076956795579547950A94D2F712
:1004C00081E090E0A0E0B0E004C0880F991FAA1F6F
:1004D000BB1F2A95D2F70197A109B1098E219F214F
:1004E000A023B1230097A105B10521F081E090E0A0
:1004F000A0E0B0E09A01AB01282B392B4A2B5B2BF3
:10050000DA01C9018F779070A070B07080349105C6
:10051000A105B10539F427FF09C0205C3F4F4F4FBB
:100520005F4F04C0215C3F4F4F4F5F4FE0E0F0E072
:100530002030A0E03A07A0E04A07A0E45A0710F0F4
:10054000E1E0F0E079018A0127C06038710564F5C7
:10055000FB01E158FF4FD801C7018F779070A07061
:10056000B07080349105A105B10539F4E7FE0DC0E6
:1005700080E490E0A0E0B0E004C08FE390E0A0E071
:10058000B0E0E80EF91E0A1F1B1F17FF05C01695E5
:100590000795F794E794319687E016950795F794B9
:1005A000E7948A95D1F705C0EE24FF248701EFEF89
:1005B000F0E06E2F679566276795902F9F77D79409
:1005C000DD24D7948E2F8695492F462B582F5D29F1
:1005D000B701CA011F910F91FF90EF90DF9008952E
:1005E000FC01DB01408151812281622F6F7770E035
:1005F000221F2227221F9381892F880F822B282FC9
:1006000030E0991F9927991F11969C9311972115F6
:100610003105A9F5411551056105710511F482E017
:1006200037C082E89FEF13969C938E9312979A019E
:10063000AB0167E0220F331F441F551F6A95D1F7A6
:1006400083E08C930DC0220F331F441F551F129659
:100650008D919C911397019713969C938E9312976B
:10066000203080E0380780E0480780E4580758F3DE
:1006700014962D933D934D935C93179708952F3FB8
:10068000310579F4411551056105710519F484E0CE
:100690008C93089564FF03C081E08C9312C01C9278
:1006A00010C02F57304013963C932E93129783E03F
:1006B0008C9387E0440F551F661F771F8A95D1F7EB
:1006C000706414964D935D936D937C931797089582
:1006D00025B5256025BD16BC20916E0021602093B4
:1006E0006E0078941092090210920802A0E0B0E027
:1006F000BC01CD010E9453012DEB37E346E85CE3DA
:100700000E9453000E94FF0080910802909109020C
:1007100068177907CCF71092090210920802089521
:1007200025B5236025BD16BC20916E002160209365
:100730006E0078941092090210920802A0E0B0E0D6
:10074000BC01CD010E9453012FE632E143E85FE393
:100750000E9453000E94FF009B011616170614F01A
:1007600021E030E0809108029091090228173907B2
:10077000CCF7109209021092080208959C0185B5E9
:10078000816085BD16BC80916E00816080936E0093
:100790007894109209021092080284E03695279509
:1007A0008A95E1F7109209021092080212161306B8
:1007B00014F021E030E0809108029091090228179E
:1007C0003907CCF7109209021092080208951F927F
:1007D0000F920FB60F9211248F939F93809108026E
:1007E00090910902019690930902809308029F91CB
:1007F0008F910F900FBE0F901F9018951092C5000B
:1008000087E68093C40088E18093C10086E08093EE
:10081000C20008958091C00087FFFCCF8091C60080
:1008200008950895982F8091C00080748093C0002F
:100830008091C000882351F080910A02E82FF0E0F7
:10084000E45FFD4F90838F5F80930A02089580914B
:100850000A028F5F80930A02089580910B028F5FD6
:1008600080930B0208951092C50087E68093C40020
:1008700088E18093C10086E08093C2008091C0002F
:1008800087FFFCCF8091C6008133C1F388EB9BE0EA
:100890000E949003F3CF2F923F924F925F926F92FC
:1008A0007F928F929F92AF92BF92CF92DF92EF9200
:1008B000FF920F931F93CF93DF93CDB7DEB7CA1B81
:1008C000DB0B0FB6F894DEBF0FBECDBF09942A88AC
:1008D000398848885F846E847D848C849B84AA8454
:1008E000B984C884DF80EE80FD800C811B81AA81E1
:1008F000B981CE0FD11D0FB6F894DEBF0FBECDBFAC
:08090000ED010895F894FFCF0A
:1009080000000000000000000001020203030303CE
:100918000404040404040404050505050505050587
:100928000505050505050505060606060606060667
:10093800060606060606060606060606060606064F
:100948000606060606060606070707070707070737
:10095800070707070707070707070707070707071F
:10096800070707070707070707070707070707070F
:1009780007070707070707070707070707070707FF
:1009880007070707070707070808080808080808E7
:1009980008080808080808080808080808080808CF
:1009A80008080808080808080808080808080808BF
:1009B80008080808080808080808080808080808AF
:1009C800080808080808080808080808080808089F
:1009D800080808080808080808080808080808088F
:1009E800080808080808080808080808080808087F
:1009F800080808080808080808080808080808086F
:080A08000808080808080808A6
:00000001FF
