:100000000C9434000C943E000C943E000C943E0082
:100010000C943E000C943E000C943E000C943E0068
:100020000C943E000C943E000C943E000C94400056
:100030000C943E000C943E000C943E000C943E0048
:100040000C943E000C943E000C943E000C943E0038
:100050000C943E000C943E000C943E000C943E0028
:100060000C943E000C943E0011241FBECFEFD8E04C
:10007000DEBFCDBF0E9467000C946A000C940000A4
:100080001F920F920FB60F9211248F939F9385B1F9
:1000900091E0892785B99F918F910F900FBE0F90A6
:1000A0001F90189581E084B988E08093810089E0F1
:1000B0009DE3909389008093880082E080936F0095
:1000C0007894E1E8F0E080818560808308950E9463
:0800D0005200FFCFF894FFCFAE
:00000001FF
