:100000000C9434000C9451000C9451000C94510049
:100010000C9451000C9451000C9451000C9451001C
:100020000C9451000C9451000C9451000C9451000C
:100030000C9451000C9451000C9451000C945100FC
:100040000C9451000C9451000C9451000C945100EC
:100050000C9451000C9451000C9451000C945100DC
:100060000C9451000C94510011241FBECFEFD8E026
:10007000DEBFCDBF11E0A0E0B1E0E0E3F1E002C0FF
:1000800005900D92A430B107D9F711E0A4E0B1E0DA
:1000900001C01D92AC30B107E1F70E9453000C94EF
:1000A00096000C940000CF93DF93C0910001D09193
:1000B0000101C130D10551F40E947800D0930301B1
:1000C000C09302011092010110920001C09102013F
:1000D000D0910301C130D10541F70E9483001092F5
:1000E000030110920201D0930101C0930001DDCF02
:1000F00091E094B982E084BD97BD80936E007894BE
:1001000085E085BD089581E084B988E08093810011
:1001100089E09DE3909389008093880082E080933A
:100120006F00789485E0809381000895F894FFCF64
:0401300001000200C8
:00000001FF
