:100000000C9434000C943E000C943E000C943E0082
:100010000C943E000C943E000C943E000C943E0068
:100020000C943E000C943E000C943E000C943E0058
:100030000C943E000C943E000C943E000C943E0048
:100040000C9466000C943E000C943E000C943E0010
:100050000C943E000C943E000C943E000C943E0028
:100060000C943E000C943E0011241FBECFEFD8E04C
:10007000DEBFCDBF0E9440000C9476000C940000BF
:10008000DF93CF93CDB7DEB7AAE2B0E0EAE2F0E0CB
:10009000808180648C93A4E4B0E0E4E4F0E08081AB
:1000A00083688C93AEE6B0E0EEE6F0E0808181609C
:1000B0008C937894A5E4B0E0E5E4F0E0808185607D
:1000C0008C9380E090E0CF91DF9108951F920F9282
:1000D0000FB60F921124DF93CF93CDB7DEB7CF9138
:1000E000DF910F900FBE0F901F901895F894FFCFDF
:00000001FF
