:100000000C9434000C9451000C9451000C94510049
:100010000C9451000C9451000C9451000C9451001C
:100020000C9451000C9451000C9451000C9451000C
:100030000C9451000C9451000C9451000C945100FC
:100040000C94B1070C9451000C9451000C94510085
:100050000C9442090C9451000C9451000C945100E2
:100060000C9451000C94510011241FBECFEFD8E026
:10007000DEBFCDBF12E0A0E0B1E0E4EEF5E102C0EA
:1000800005900D92AA32B107D9F712E0AAE2B2E0C8
:1000900001C01D92AE3AB107E1F70E9424080C940A
:1000A000F00A0C940000EF92FF920F931F937B01D4
:1000B0008C0120E030E040E05FE40E94CF03882321
:1000C0008CF0C801B70120E030E040E05FE40E941E
:1000D000CB010E94FF039B01AC0120503040404007
:1000E000504806C0C801B7010E94FF039B01AC0144
:1000F000B901CA011F910F91FF90EF900895A0E000
:10010000B0E0E5E8F0E00C94B00ADC012B01FA0164
:100110009C91923008F439C1EB018881823008F457
:1001200033C1943069F4843009F02FC111969C9149
:1001300011978981981709F428C1A8E1B1E025C178
:10014000843009F421C18230A9F4923009F01DC134
:100150009A01AD0188E0EA010990AE01E901099236
:100160009E018150C1F7E201898111969C918923FA
:10017000818308C1923009F407C112962D903C90FA
:100180001397EB018A819B811496AD90BD90CD9021
:10019000DC901797EC80FD800E811F819101281B58
:1001A000390BB90137FF04C066277727621B730B31
:1001B000603271050CF061C0121613066CF5370140
:1001C0004801062E04C096948794779467940A9405
:1001D000D2F721E030E040E050E004C0220F331FAE
:1001E000441F551F6A95D2F721503040404050407F
:1001F0002E213F2140235123211531054105510571
:1002000021F021E030E040E050E079018A01E62869
:10021000F728082919293CC0232BD1F1260E371EB7
:1002200035014601062E04C096948794779467940E
:100230000A94D2F721E030E040E050E004C0220F01
:10024000331F441F551F6A95D2F72150304040405C
:1002500050402A213B214C215D21211531054105CA
:10026000510521F021E030E040E050E059016A0101
:10027000A628B728C828D9280BC0821593052CF0CA
:100280001C01AA24BB24650103C0EE24FF248701BE
:1002900011969C91D20111968C91981709F445C042
:1002A000992339F0A80197012A193B094C095D09E6
:1002B00006C0A60195012E193F09400B510B57FDB1
:1002C00008C0118233822282248335834683578378
:1002D0001DC081E081833382228288279927DC0137
:1002E000821B930BA40BB50B84839583A683B783E2
:1002F0000DC0220F331F441F551F248335834683AF
:1003000057838281938101979383828324813581EE
:1003100046815781DA01C9010197A109B1098F5FAF
:100320009F4FAF4FBF4328F30BC09183338222828C
:10033000EA0CFB1C0C1D1D1DE482F582068317834D
:1003400083E08083248135814681578157FF1AC01D
:10035000C901AA2797FDA095BA2F81709070A0704F
:10036000B0705695479537952795822B932BA42BE4
:10037000B52B84839583A683B7838281938101966D
:1003800093838283DF0101C0D201CD01CDB7DEB7F7
:10039000E2E10C94CC0AA0E2B0E0E1EDF1E00C94D3
:1003A000BC0A69837A838B839C832D833E834F832E
:1003B0005887E9E0EE2EF12CEC0EFD1ECE010196E1
:1003C000B7010E94F0058E010F5E1F4FCE0105960A
:1003D000B8010E94F0058A8991E089278A8BC701BC
:1003E000B801AE01475E5F4F0E947F000E941B056F
:1003F000A096E6E00C94D80AA0E2B0E0E2E0F2E0D9
:100400000C94BC0A69837A838B839C832D833E83FF
:100410004F835887F9E0EF2EF12CEC0EFD1ECE0134
:100420000196B7010E94F0058E010F5E1F4FCE01AD
:100430000596B8010E94F005C701B801AE01475EFC
:100440005F4F0E947F000E941B05A096E6E00C947F
:10045000D80AA0E2B0E0EFE2F2E00C94B00A6983BF
:100460007A838B839C832D833E834F835887CE0171
:100470000196BE01675F7F4F0E94F005CE01059691
:10048000BE016F5E7F4F0E94F0059985923088F023
:1004900089898230C8F0943019F4823051F404C054
:1004A000843029F4923081F488E191E0C6C0923022
:1004B00049F420E09A858A89981321E02A87CE01A1
:1004C0000996BBC0823049F420E09A858A89981346
:1004D00021E02A8BCE014196B0C02D843E844F840A
:1004E00058886D887E888F88988CEE24FF24870139
:1004F000AA24BB24650140E050E060E070E0E0E049
:10050000F0E0C10181709070892BE9F0E60CF71CD6
:10051000081D191D9A01AB012A0D3B1D4C1D5D1DC7
:1005200080E090E0A0E0B0E0E614F70408051905CB
:1005300020F481E090E0A0E0B0E0BA01A901480F0A
:10054000591F6A1F7B1FAA0CBB1CCC1CDD1C97FE0D
:1005500008C081E090E0A0E0B0E0A82AB92ACA2A49
:10056000DB2A3196E032F10549F0660C771C881CD5
:10057000991C5694479437942794C3CFFA85EA89F7
:100580002B893C898B859C85280F391F2E5F3F4F17
:1005900017C0CA0181709070892B61F0169507957C
:1005A000F794E79480E090E0A0E0B0E8E82AF92A28
:1005B0000A2B1B2B76956795579547952F5F3F4FD5
:1005C00077FDE7CF0CC0440F551F661F771F17FD3F
:1005D0004160EE0CFF1C001F111F215030404030C5
:1005E00090E0590790E0690790E4790760F32B8F5A
:1005F0003C8FDB01CA018F779070A070B07080349F
:100600009105A105B10561F447FD0AC0E114F104AB
:100610000105110529F0405C5F4F6F4F7F4F407817
:100620001A8EFE1711F081E08A8F4D8F5E8F6F8FCB
:1006300078A383E0898FCE0149960E941B05A0967E
:10064000E2E10C94CC0AA8E1B0E0E9E2F3E00C941A
:10065000B80A69837A838B839C832D833E834F837F
:100660005887B9E0EB2EF12CEC0EFD1ECE01019661
:10067000B7010E94F0058E010F5E1F4FCE01059657
:10068000B8010E94F0052985223008F47EC039891E
:10069000323010F4B8017CC08A859A8989278A870C
:1006A000243011F0223031F4231709F06EC068E1D4
:1006B00071E06EC0343039F41D861E861F86188A9C
:1006C0001C861B8604C0323021F484E08987B70180
:1006D0005FC02B853C858B899C89281B390B3C8707
:1006E0002B87ED84FE840F851889AD88BE88CF885E
:1006F000D88CEA14FB040C051D0540F4EE0CFF1C1D
:10070000001F111F215030403C872B8720E030E034
:1007100040E050E080E090E0A0E0B0E460E070E015
:10072000EA14FB040C051D0540F0282B392B4A2B3D
:100730005B2BEA18FB080C091D09B695A795979540
:100740008795EE0CFF1C001F111F6F5F7F4F6F31ED
:10075000710531F7DA01C9018F779070A070B07020
:1007600080349105A105B10561F427FD0AC0E114AB
:10077000F1040105110529F0205C3F4F4F4F5F4FF9
:1007800020782D873E874F87588BBE01675F7F4F4C
:10079000CB010E941B056896EAE00C94D40AA8E1FC
:1007A000B0E0E5EDF3E00C94BC0A69837A838B83B7
:1007B0009C832D833E834F83588789E0E82EF12C5C
:1007C000EC0EFD1ECE010196B7010E94F0058E01D0
:1007D0000F5E1F4FCE010596B8010E94F005898576
:1007E000823040F08989823028F0C701B8010E9428
:1007F000680601C08FEF6896E6E00C94D80AACE07A
:10080000B0E0E5E0F4E00C94C00A69837A838B835E
:100810009C83CE010196BE016B5F7F4F0E94F00565
:100820008D81823061F1823050F1843021F48E81EB
:10083000882351F12EC02F81388537FD20C06E816D
:100840002F3131051CF06623F9F023C08EE190E0D2
:10085000821B930B29853A854B855C8504C0569590
:100860004795379527958A95D2F76623B1F050952D
:100870004095309521953F4F4F4F5F4F0EC020E080
:1008800030E040E050E009C02FEF3FEF4FEF5FE76F
:1008900004C020E030E040E050E8B901CA012C96E5
:1008A000E2E00C94DC0AA8E0B0E0E9E5F4E00C94A6
:1008B000B80A7B018C01611571058105910519F458
:1008C00082E0898360C083E089838EE1C82ED12CC9
:1008D000DC82CB82ED82FE820F831887C801B701CC
:1008E0000E94CC04FC013197F7FF3BC0222733273D
:1008F0002E1B3F0B57016801022E04C0D694C794EB
:10090000B794A7940A94D2F740E050E060E070E01A
:1009100081E090E0A0E0B0E004C0880F991FAA1F1A
:10092000BB1F2A95D2F70197A109B1098E219F21FA
:10093000A023B1230097A105B10521F041E050E0CB
:1009400060E070E04A295B296C297D294D835E8334
:100950006F8378878EE190E08E1B9F0B9C838B8347
:1009600012C0309781F00E2E04C0EE0CFF1C001F49
:10097000111F0A94D2F7ED82FE820F831887CE1AD8
:10098000DF0ADC82CB821A82CE0101960E941B050F
:100990002896EAE00C94D40AEF92FF920F931F93EB
:1009A0007B018C0180E0E81680E0F80681E0080712
:1009B00080E0180788F48FEFE816F10401051105AF
:1009C00031F028F088E090E0A0E0B0E017C080E0CF
:1009D00090E0A0E0B0E012C080E0E81680E0F80609
:1009E00080E0080781E0180728F088E190E0A0E0A7
:1009F000B0E004C080E190E0A0E0B0E020E230E0B0
:100A000040E050E0281B390B4A0B5B0B04C01695E5
:100A10000795F794E7948A95D2F7F701E05EFE4FC9
:100A20008081281B310941095109C9011F910F918A
:100A3000FF90EF900895DF92EF92FF920F931F9334
:100A4000FC01E480F58006811781D18080818230AD
:100A500048F480E090E0A0E1B0E0E82AF92A0A2B0F
:100A60001B2BA5C0843009F49FC0823021F4EE24F2
:100A7000FF24870105C0E114F1040105110519F4F3
:100A8000E0E0F0E096C0628173819FEF6238790701
:100A90000CF05BC022E83FEF261B370B2A313105F3
:100AA0002CF020E030E040E050E02AC0B801A7017F
:100AB000022E04C076956795579547950A94D2F70C
:100AC00081E090E0A0E0B0E004C0880F991FAA1F69
:100AD000BB1F2A95D2F70197A109B1098E219F2149
:100AE000A023B1230097A105B10521F081E090E09A
:100AF000A0E0B0E09A01AB01282B392B4A2B5B2BED
:100B0000DA01C9018F779070A070B07080349105C0
:100B1000A105B10539F427FF09C0205C3F4F4F4FB5
:100B20005F4F04C0215C3F4F4F4F5F4FE0E0F0E06C
:100B30002030A0E03A07A0E04A07A0E45A0710F0EE
:100B4000E1E0F0E079018A0127C06038710564F5C1
:100B5000FB01E158FF4FD801C7018F779070A0705B
:100B6000B07080349105A105B10539F4E7FE0DC0E0
:100B700080E490E0A0E0B0E004C08FE390E0A0E06B
:100B8000B0E0E80EF91E0A1F1B1F17FF05C01695DF
:100B90000795F794E794319687E016950795F794B3
:100BA000E7948A95D1F705C0EE24FF248701EFEF83
:100BB000F0E06E2F679566276795902F9F77D79403
:100BC000DD24D7948E2F8695492F462B582F5D29EB
:100BD000B701CA011F910F91FF90EF90DF90089528
:100BE000FC01DB01408151812281622F6F7770E02F
:100BF000221F2227221F9381892F880F822B282FC3
:100C000030E0991F9927991F11969C9311972115F0
:100C10003105A9F5411551056105710511F482E011
:100C200037C082E89FEF13969C938E9312979A0198
:100C3000AB0167E0220F331F441F551F6A95D1F7A0
:100C400083E08C930DC0220F331F441F551F129653
:100C50008D919C911397019713969C938E93129765
:100C6000203080E0380780E0480780E4580758F3D8
:100C700014962D933D934D935C93179708952F3FB2
:100C8000310579F4411551056105710519F484E0C8
:100C90008C93089564FF03C081E08C9312C01C9272
:100CA00010C02F57304013963C932E93129783E039
:100CB0008C9387E0440F551F661F771F8A95D1F7E5
:100CC000706414964D935D936D937C93179708957C
:100CD0001F93DC01FB019C91923008F447C0808196
:100CE000823008F443C0943051F411961C91843042
:100CF00099F58181682F70E0611B71093FC08430D4
:100D000021F0923031F48230B9F18181882389F168
:100D10002DC011961C9111978230F1F08181181726
:100D2000D9F412962D913C91139782819381821769
:100D3000930794F028173907BCF014968D919D9174
:100D40000D90BC91A02D24813581468157812817B3
:100D500039074A075B0718F4112341F00AC08217CC
:100D60009307A407B50740F4112319F061E070E080
:100D700005C06FEF7FEF02C060E070E0CB011F9114
:100D80000895DF93CF9300D000D0CDB7DEB79C831A
:100D90008B83A5E4B0E0E5E4F0E0808185608C938E
:100DA000E6E4F0E01082AEE6B0E0EEE6F0E080814E
:100DB00081608C93789410922B0210922A028B817E
:100DC0009C81CC01A0E0B0E0BC01CD010E945304A5
:100DD000DC01CB01BC01CD012DEB37E346E85CE340
:100DE0000E942303DC01CB01BC01CD010E94FF0363
:100DF000DC01CB019A83898320912A0230912B0256
:100E000089819A8182179307BCF710922B02109266
:100E10002A020F900F900F900F90CF91DF910895BD
:100E2000DF93CF9300D000D0CDB7DEB79C838B8308
:100E3000A5E4B0E0E5E4F0E0808183608C93E6E433
:100E4000F0E01082AEE6B0E0EEE6F0E08081816096
:100E50008C93789410922B0210922A028B819C81A1
:100E6000CC01A0E0B0E0BC01CD010E945304DC0144
:100E7000CB01BC01CD012FE632E143E85FE30E94E4
:100E80002303DC01CB01BC01CD010E94FF03DC0187
:100E9000CB019A83898389819A811816190624F0D7
:100EA00081E090E09A83898320912A0230912B027D
:100EB00089819A8182179307BCF710922B021092B6
:100EC0002A020F900F900F900F90CF91DF9108950D
:100ED000DF93CF9300D000D0CDB7DEB79C838B8358
:100EE000A5E4B0E0E5E4F0E0808181608C93E6E485
:100EF000F0E01082AEE6B0E0EEE6F0E080818160E6
:100F00008C93789410922B0210922A028B819C81F0
:100F1000929582958F7089279F7089279A838983FC
:100F200010922B0210922A0289819A8118161906B2
:100F300024F081E090E09A83898320912A02309105
:100F40002B0289819A8182179307BCF710922B029A
:100F500010922A020F900F900F900F90CF91DF9177
:100F600008951F920F920FB60F9211248F939F93A3
:100F7000DF93CF93CDB7DEB780912A0290912B02F9
:100F8000019690932B0280932A02CF91DF919F913B
:100F90008F910F900FBE0F901F901895DF93CF93F6
:100FA000CDB7DEB7A4E4B0E0E4E4F0E0808183688C
:100FB0008C93CF91DF910895DF93CF93CDB7DEB7B8
:100FC000ECE7F0E080E48083EAE7F0E087E8808304
:100FD000CF91DF910895DF93CF930F92CDB7DEB716
:100FE0008983898181708983ACE7B0E0ECE7F0E028
:100FF0008081982F987F8981892B8C93AAE7B0E014
:10100000EAE7F0E0808180648C93EAE7F0E0808199
:10101000882F90E0807490700097B9F7E8E7F0E0CF
:10102000808191810F90CF91DF910895DF93CF93CD
:101030000F92CDB7DEB78983E7E4F0E08981808342
:101040000F90CF91DF910895DF93CF9300D000D020
:10105000CDB7DEB70E94D5080E94CE070E94DC07FC
:1010600080E00E94EB079A83898380E091E00E94F0
:101070005E0A84EF91E00E94100789819A810E94A4
:101080007A098DE090E00E940A098AE090E00E94CF
:101090000A0984EF91E00E94100729813A8184EFC8
:1010A00091E0AC01249FC001259F900D349F900DCD
:1010B0001124CC01A0E0B0E0BC01CD010E9453049A
:1010C000DC01CB01BC01CD0121E230E240E85AE372
:1010D0000E942902DC01CB01BC01CD010E9453001A
:1010E000DC01CB019C838B838B819C8187319105B3
:1010F00018F480E00E9416088B819C81883191054C
:1011000040F08B819C818A31910518F484E60E941D
:1011100016088B819C818A31910540F08B819C81DE
:101120008C31910518F486E90E9416088B819C8108
:101130008C31910540F08B819C818E31910518F4A2
:1011400088EC0E9416088B819C818E31910540F0BD
:101150008B819C818132910518F488EC0E941608DD
:101160008B819C818132910518F085EF0E941608D1
:1011700084EF91E00E9410078CE091E00E945E0AEB
:1011800084EF91E00E9410078B819C810E947A0974
:101190008DE090E00E940A098AE090E00E940A092E
:1011A00084EF91E00E9410075BCFDF93CF93CDB720
:1011B000DEB7E5ECF0E01082E4ECF0E087E6808357
:1011C000E1ECF0E088E48083E2ECF0E086E080830C
:1011D0007894CF91DF910895DF93CF930F92CDB79D
:1011E000DEB7898380912D02882F90E0FC01E25DBB
:1011F000FD4F8981808380912D028F5F80932D0226
:1012000080912D02882314F410922C020F90CF911C
:10121000DF9108950F931F93DF93CF9300D00F9228
:10122000CDB7DEB79B838A8319820EC08981282FB0
:1012300030E08A819B81FC01E20FF31F80810E94D4
:10124000EC0889818F5F89838981082F10E08A816A
:101250009B810E94E70A0817190740F3E0ECF0E0D1
:101260008081882F90E080729070009719F0E6ECF2
:10127000F0E010820F900F900F90CF91DF911F91AF
:101280000F9108951F920F920FB60F9211248F9312
:101290009F93AF93BF93EF93FF93DF93CF93CDB71C
:1012A000DEB790912C0280912D029817B1F0A6EC38
:1012B000B0E080912C02882F90E0FC01E25DFD4FB0
:1012C00080818C9380912C028F5F80932C0280917F
:1012D0002C02882314F410922C02CF91DF91FF91FD
:1012E000EF91BF91AF919F918F910F900FBE0F9093
:1012F0001F901895DF93CF93CDB7DEB7ED970FB65C
:10130000F894DEBF0FBECDBF98AF8FABCE01059670
:101310009AAF89AFE0E2F2E0FCAFEBAFFAE0FDAFED
:10132000EBADFCAD00808BAD9CAD01969CAF8BAF5F
:10133000E9ADFAAD008289AD9AAD01969AAF89AF59
:101340009DAD91509DAFEDADEE2351F71C821B82F8
:101350008FA998AD8A3091050CF04CC08B819C818F
:101360009C01220F331FCE010196820F931FFC01B7
:101370003E968FA998AD9183808388EE93E00E947A
:10138000100738C0EB81FC818FA998AD2AE030E0CE
:10139000B9010E94890AAC019F01220F331FCE01BF
:1013A0000196820F931FFC013E96518340838FA9C3
:1013B00098AD2AE030E0B9010E94890ACB0198AFCC
:1013C0008FAB8B819C8101969C838B838FA998AD79
:1013D0008A3091057CF48B819C819C01220F331F04
:1013E000CE010196820F931FFC013E968FA998AD06
:1013F000918380838FA998AD8A3091051CF68B81EB
:101400009C819A8389831FC0A6ECB0E089819A8170
:101410009C01220F331FCE010196820F931FFC0106
:101420003E9620813181CE010596FC01E20FF31F2B
:1014300080818C9388E592E00E94100789819A81CF
:1014400001979A83898389819A819923ECF686E1B1
:1014500091E00E940A09ED960FB6F894DEBF0FBE28
:10146000CDBFCF91DF910895DF93CF9300D0CDB75B
:10147000DEB79A838983E0ECF0E08081882F90E0EA
:10148000807290700097B9F3E6ECF0E08981808378
:101490000F900F90CF91DF910895DF93CF93CDB749
:1014A000DEB7E0ECF0E080818823DCF7E6ECF0E0EA
:1014B0008081882F90E0CF91DF910895DF93CF93C3
:1014C00000D00F92CDB7DEB79B838A83198210C0FC
:1014D0008981282F30E08A819B81FC01E20FF31F74
:1014E0008081882F90E00E94340A89818F5F8983F0
:1014F0008981282F30E08A819B81FC01E20FF31F54
:101500008081882329F70F900F900F90CF91DF9162
:10151000089597FB092E07260AD077FD04D00CD03A
:1015200006D000201AF4709561957F4F0895F6F764
:10153000909581959F4F0895AA1BBB1B51E107C051
:10154000AA1FBB1FA617B70710F0A61BB70B881F53
:10155000991F5A95A9F780959095BC01CD010895E2
:101560002F923F924F925F926F927F928F929F92B3
:10157000AF92BF92CF92DF92EF92FF920F931F93A1
:10158000CF93DF93CDB7DEB7CA1BDB0B0FB6F89452
:10159000DEBF0FBECDBF09942A88398848885F8492
:1015A0006E847D848C849B84AA84B984C884DF8003
:1015B000EE80FD800C811B81AA81B981CE0FD11DE7
:1015C0000FB6F894DEBF0FBECDBFED010895FC014C
:1015D00001900020E9F7809590958E0F9F1F089548
:0415E000F894FFCFAD
:1015E400416E616C6F672069733A200054656D70B9
:1015F4002069733A20000D00000000000000000084
:1016040000010202030303030404040404040404A5
:101614000505050505050505050505050505050576
:101624000606060606060606060606060606060656
:101634000606060606060606060606060606060646
:101644000707070707070707070707070707070726
:101654000707070707070707070707070707070716
:101664000707070707070707070707070707070706
:1016740007070707070707070707070707070707F6
:1016840008080808080808080808080808080808D6
:1016940008080808080808080808080808080808C6
:1016A40008080808080808080808080808080808B6
:1016B40008080808080808080808080808080808A6
:1016C4000808080808080808080808080808080896
:1016D4000808080808080808080808080808080886
:1016E4000808080808080808080808080808080876
:1016F4000808080808080808080808080808080866
:0A17040030313233343536373839CE
:00000001FF
