:100000000C9434000C9449000C9449000C94490061
:100010000C9449000C9449000C9449000C9449003C
:100020000C9449000C9449000C9449000C9449002C
:100030000C9449000C9449000C9449000C9449001C
:100040000C9449000C9449000C9449000C9449000C
:100050000C9449000C9449000C9449000C944900FC
:100060000C9449000C94490011241FBECFEFD8E036
:10007000DEBFCDBF11E0A0E0B1E0E0E2F1E002C000
:1000800005900D92AE30B107D9F70E9473000C9421
:100090008E000C9400001092C50087E68093C40087
:1000A00088E18093C10086E08093C200089580912A
:1000B000C00087FFFCCF8091C6000895982F8091E3
:1000C000C00085FFFCCF9093C6000895FC0107C0D7
:1000D0008091C00085FFFCCF9093C600319690813F
:1000E0009923B1F70895CF93DF931092C50087E667
:1000F0008093C40088E18093C10086E08093C200B1
:10010000C0E9D1E080E091E00E94660080E593ECD8
:10011000FE013197F1F70197D9F7F4CFF894FFCFAB
:0E01200048656C6C6F20776F726C6421210053
:00000001FF
