:100000000C9434000C943E000C943E000C943E0082
:100010000C943E000C943E000C943E000C943E0068
:100020000C943E000C943E000C943E000C943E0058
:100030000C943E000C943E000C943E000C943E0048
:100040000C943E000C943E000C9458000C943E001E
:100050000C943E000C943E000C943E000C943E0028
:100060000C943E000C943E0011241FBECFEFD8E04C
:10007000DEBFCDBF0E9440000C946D000C940000C8
:100080000E944C00789481E084B915B891E085B164
:10009000892785B915B8FBCF1092C50080E1809300
:1000A000C40088E98093C1008EE08093C200089567
:1000B0001F920F920FB60F9211248F93EF93FF931D
:1000C000E6ECF0E080818F5F8083FF91EF918F916C
:0E00D0000F900FBE0F901F901895F894FFCF61
:00000001FF
