:100000000C9434000C9451000C9451000C94510049
:100010000C9451000C9451000C9451000C9451001C
:100020000C9451000C9451000C9451000C9451000C
:100030000C9451000C9451000C9451000C945100FC
:100040000C9458040C9451000C9451000C945100E1
:100050000C9413050C9451000C9451000C94510015
:100060000C9451000C94510011241FBECFEFD8E026
:10007000DEBFCDBF12E0A0E0B1E0ECEDFCE002C0DD
:1000800005900D92A431B107D9F712E0A4E1B2E0D6
:1000900001C01D92A839B107E1F70E9475040C94C4
:1000A0006C060C940000A8E1B0E0E9E5F0E00C94E7
:1000B000340669837A838B839C832D833E834F83AD
:1000C0005887B9E0EB2EF12CEC0EFD1ECE01019607
:1000D000B7010E94F0028E010F5E1F4FCE01059600
:1000E000B8010E94F0022985223008F47EC03989C7
:1000F000323010F4B8017CC08A859A8989278A87B2
:10010000243011F0223031F4231709F06EC062E080
:1001100071E06EC0343039F41D861E861F86188A41
:100120001C861B8604C0323021F484E08987B70125
:100130005FC02B853C858B899C89281B390B3C87AC
:100140002B87ED84FE840F851889AD88BE88CF8803
:10015000D88CEA14FB040C051D0540F4EE0CFF1CC2
:10016000001F111F215030403C872B8720E030E0DA
:1001700040E050E080E090E0A0E0B0E460E070E0BB
:10018000EA14FB040C051D0540F0282B392B4A2BE3
:100190005B2BEA18FB080C091D09B695A7959795E6
:1001A0008795EE0CFF1C001F111F6F5F7F4F6F3193
:1001B000710531F7DA01C9018F779070A070B070C6
:1001C00080349105A105B10561F427FD0AC0E11451
:1001D000F1040105110529F0205C3F4F4F4F5F4F9F
:1001E00020782D873E874F87588BBE01675F7F4FF2
:1001F000CB010E941B026896EAE00C945006ACE02A
:10020000B0E0E5E0F1E00C943C0669837A838B83EF
:100210009C83CE010196BE016B5F7F4F0E94F0026E
:100220008D81823061F1823050F1843021F48E81F1
:10023000882351F12EC02F81388537FD20C06E8173
:100240002F3131051CF06623F9F023C08EE190E0D8
:10025000821B930B29853A854B855C8504C0569596
:100260004795379527958A95D2F76623B1F0509533
:100270004095309521953F4F4F4F5F4F0EC020E086
:1002800030E040E050E009C02FEF3FEF4FEF5FE775
:1002900004C020E030E040E050E8B901CA012C96EB
:1002A000E2E00C945806A8E0B0E0E9E5F1E00C9437
:1002B00034067B018C01611571058105910519F4E6
:1002C00082E0898360C083E089838EE1C82ED12CCF
:1002D000DC82CB82ED82FE820F831887C801B701D2
:1002E0000E94CC01FC013197F7FF3BC02227332746
:1002F0002E1B3F0B57016801022E04C0D694C794F1
:10030000B794A7940A94D2F740E050E060E070E020
:1003100081E090E0A0E0B0E004C0880F991FAA1F20
:10032000BB1F2A95D2F70197A109B1098E219F2100
:10033000A023B1230097A105B10521F041E050E0D1
:1003400060E070E04A295B296C297D294D835E833A
:100350006F8378878EE190E08E1B9F0B9C838B834D
:1003600012C0309781F00E2E04C0EE0CFF1C001F4F
:10037000111F0A94D2F7ED82FE820F831887CE1ADE
:10038000DF0ADC82CB821A82CE0101960E941B0218
:100390002896EAE00C945006EF92FF920F931F9379
:1003A0007B018C0180E0E81680E0F80681E0080718
:1003B00080E0180788F48FEFE816F10401051105B5
:1003C00031F028F088E090E0A0E0B0E017C080E0D5
:1003D00090E0A0E0B0E012C080E0E81680E0F8060F
:1003E00080E0080781E0180728F088E190E0A0E0AD
:1003F000B0E004C080E190E0A0E0B0E020E230E0B6
:1004000040E050E0281B390B4A0B5B0B04C01695EB
:100410000795F794E7948A95D2F7F701E65FFE4FC8
:100420008081281B310941095109C9011F910F9190
:10043000FF90EF900895DF92EF92FF920F931F933A
:10044000FC01E480F58006811781D18080818230B3
:1004500048F480E090E0A0E1B0E0E82AF92A0A2B15
:100460001B2BA5C0843009F49FC0823021F4EE24F8
:10047000FF24870105C0E114F1040105110519F4F9
:10048000E0E0F0E096C0628173819FEF6238790707
:100490000CF05BC022E83FEF261B370B2A313105F9
:1004A0002CF020E030E040E050E02AC0B801A70185
:1004B000022E04C076956795579547950A94D2F712
:1004C00081E090E0A0E0B0E004C0880F991FAA1F6F
:1004D000BB1F2A95D2F70197A109B1098E219F214F
:1004E000A023B1230097A105B10521F081E090E0A0
:1004F000A0E0B0E09A01AB01282B392B4A2B5B2BF3
:10050000DA01C9018F779070A070B07080349105C6
:10051000A105B10539F427FF09C0205C3F4F4F4FBB
:100520005F4F04C0215C3F4F4F4F5F4FE0E0F0E072
:100530002030A0E03A07A0E04A07A0E45A0710F0F4
:10054000E1E0F0E079018A0127C06038710564F5C7
:10055000FB01E158FF4FD801C7018F779070A07061
:10056000B07080349105A105B10539F4E7FE0DC0E6
:1005700080E490E0A0E0B0E004C08FE390E0A0E071
:10058000B0E0E80EF91E0A1F1B1F17FF05C01695E5
:100590000795F794E794319687E016950795F794B9
:1005A000E7948A95D1F705C0EE24FF248701EFEF89
:1005B000F0E06E2F679566276795902F9F77D79409
:1005C000DD24D7948E2F8695492F462B582F5D29F1
:1005D000B701CA011F910F91FF90EF90DF9008952E
:1005E000FC01DB01408151812281622F6F7770E035
:1005F000221F2227221F9381892F880F822B282FC9
:1006000030E0991F9927991F11969C9311972115F6
:100610003105A9F5411551056105710511F482E017
:1006200037C082E89FEF13969C938E9312979A019E
:10063000AB0167E0220F331F441F551F6A95D1F7A6
:1006400083E08C930DC0220F331F441F551F129659
:100650008D919C911397019713969C938E9312976B
:10066000203080E0380780E0480780E4580758F3DE
:1006700014962D933D934D935C93179708952F3FB8
:10068000310579F4411551056105710519F484E0CE
:100690008C93089564FF03C081E08C9312C01C9278
:1006A00010C02F57304013963C932E93129783E03F
:1006B0008C9387E0440F551F661F771F8A95D1F7EB
:1006C000706414964D935D936D937C931797089582
:1006D000DF93CF9300D000D0CDB7DEB79C838B8360
:1006E000A5E4B0E0E5E4F0E0808185608C93E6E489
:1006F000F0E01082AEE6B0E0EEE6F0E080818160EE
:100700008C93789410921502109214028B819C8124
:10071000CC01A0E0B0E0BC01CD010E945301DC019E
:10072000CB01BC01CD012DEB37E346E85CE30E9431
:100730005300DC01CB01BC01CD010E94FF00DC01B4
:10074000CB019A838983209114023091150289810B
:100750009A8182179307BCF7109215021092140227
:100760000F900F900F900F90CF91DF910895DF932E
:10077000CF9300D000D0CDB7DEB79C838B83A5E4A8
:10078000B0E0E5E4F0E0808183608C93E6E4F0E0A3
:100790001082AEE6B0E0EEE6F0E0808181608C93FE
:1007A000789410921502109214028B819C81CC01D6
:1007B000A0E0B0E0BC01CD010E945301DC01CB01FF
:1007C000BC01CD012FE632E143E85FE30E94530014
:1007D000DC01CB01BC01CD010E94FF00DC01CB019B
:1007E0009A83898389819A811816190624F081E0F9
:1007F00090E09A83898320911402309115028981B7
:100800009A8182179307BCF7109215021092140276
:100810000F900F900F900F90CF91DF910895DF937D
:10082000CF9300D000D0CDB7DEB79C838B83A5E4F7
:10083000B0E0E5E4F0E0808181608C93E6E4F0E0F4
:100840001082AEE6B0E0EEE6F0E0808181608C934D
:10085000789410921502109214028B819C819295CB
:1008600082958F7089279F7089279A838983109238
:1008700015021092140289819A811816190624F023
:1008800081E090E09A8389832091140230911502CF
:1008900089819A8182179307BCF7109215021092F2
:1008A00014020F900F900F900F90CF91DF91089549
:1008B0001F920F920FB60F9211248F939F93DF9385
:1008C000CF93CDB7DEB780911402909115020196B7
:1008D0009093150280931402CF91DF919F918F9195
:1008E0000F900FBE0F901F901895DF93CF930F922C
:1008F000CDB7DEB7E4E2F0E081E08083E5E2F0E04E
:1009000082E0808319820E94A604E3E2F0E0808105
:10091000882F90E082709070009781F4A5E2B0E09B
:10092000E5E2F0E0808181608C9389818F5F89832B
:100930008981882F90E00E944B05E7CFA5E2B0E0C7
:10094000E5E2F0E080818E7F8C93DFCFDF93CF9361
:10095000CDB7DEB7E5ECF0E01082E4ECF0E087E63E
:100960008083E1ECF0E088E48083E2ECF0E086E074
:1009700080837894CF91DF910895DF93CF930F9286
:10098000CDB7DEB7898380911702882F90E0FC01F4
:10099000E85EFD4F89818083809117028F5F80938D
:1009A000170280911702882314F4109216020F90F8
:1009B000CF91DF9108950F931F93DF93CF9300D0D2
:1009C0000F92CDB7DEB79B838A8319820EC08981CF
:1009D000282F30E08A819B81FC01E20FF31F808188
:1009E0000E94BD0489818F5F89838981082F10E06F
:1009F0008A819B810E9463060817190740F3E0EC87
:100A0000F0E08081882F90E080729070009719F05C
:100A1000E6ECF0E010820F900F900F90CF91DF91F5
:100A20001F910F9108951F920F920FB60F921124EC
:100A30008F939F93AF93BF93EF93FF93DF93CF93E6
:100A4000CDB7DEB790911602809117029817B1F0DA
:100A5000A6ECB0E080911602882F90E0FC01E85EE1
:100A6000FD4F80818C93809116028F5F80931602D8
:100A700080911602882314F410921602CF91DF9110
:100A8000FF91EF91BF91AF919F918F910F900FBE0A
:100A90000F901F901895DF93CF93CDB7DEB7ED97EA
:100AA0000FB6F894DEBF0FBECDBF98AF8FABCE01AF
:100AB00005969AAF89AFEAE0F2E0FCAFEBAFFAE05F
:100AC000FDAFEBADFCAD00808BAD9CAD01969CAF56
:100AD0008BAFE9ADFAAD008289AD9AAD01969AAFC0
:100AE00089AF9DAD91509DAFEDADEE2351F71C82C6
:100AF0001B828FA998AD8A3091050CF04CC08B8178
:100B00009C819C01220F331FCE010196820F931FFF
:100B1000FC013E968FA998AD9183808388EE93E087
:100B20000E94B70338C0EB81FC818FA998AD2AE001
:100B300030E0B9010E940506AC019F01220F331F6E
:100B4000CE010196820F931FFC013E965183408394
:100B50008FA998AD2AE030E0B9010E940506CB01CB
:100B600098AF8FAB8B819C8101969C838B838FA9DF
:100B700098AD8A3091057CF48B819C819C01220F79
:100B8000331FCE010196820F931FFC013E968FA961
:100B900098AD918380838FA998AD8A3091051CF61A
:100BA0008B819C819A8389831FC0A6ECB0E08981E8
:100BB0009A819C01220F331FCE010196820F931F51
:100BC000FC013E9620813181CE010596FC01E20FA9
:100BD000F31F80818C9388E592E00E94B70389819E
:100BE0009A8101979A83898389819A819923ECF666
:100BF00080E091E00E94DB04ED960FB6F894DEBF32
:100C00000FBECDBFCF91DF91089597FB092E072628
:100C10000AD077FD04D00CD006D000201AF47095CD
:100C200061957F4F0895F6F7909581959F4F0895B0
:100C3000AA1BBB1B51E107C0AA1FBB1FA617B70702
:100C400010F0A61BB70B881F991F5A95A9F780951E
:100C50009095BC01CD0108952F923F924F925F92E3
:100C60006F927F928F929F92AF92BF92CF92DF92BC
:100C7000EF92FF920F931F93CF93DF93CDB7DEB721
:100C8000CA1BDB0B0FB6F894DEBF0FBECDBF0994B5
:100C90002A88398848885F846E847D848C849B840C
:100CA000AA84B984C884DF80EE80FD800C811B811A
:100CB000AA81B981CE0FD11D0FB6F894DEBF0FBE49
:100CC000CDBFED010895FC0101900020E9F780956A
:0C0CD00090958E0F9F1F0895F894FFCFA1
:100CDC000D000000000000000000000102020303F0
:100CEC0003030404040404040404050505050505B4
:100CFC000505050505050505050506060606060692
:100D0C000606060606060606060606060606060677
:100D1C000606060606060606060607070707070761
:100D2C000707070707070707070707070707070747
:100D3C000707070707070707070707070707070737
:100D4C000707070707070707070707070707070727
:100D5C000707070707070707070708080808080811
:100D6C0008080808080808080808080808080808F7
:100D7C0008080808080808080808080808080808E7
:100D8C0008080808080808080808080808080808D7
:100D9C0008080808080808080808080808080808C7
:100DAC0008080808080808080808080808080808B7
:100DBC0008080808080808080808080808080808A7
:100DCC000808080808080808080808080808080897
:100DDC000808080808080808080830313233343588
:040DEC003637383925
:00000001FF
