:100000000C9434000C9451000C9451000C94510049
:100010000C9451000C9451000C9451000C9451001C
:100020000C9451000C9451000C9451000C9451000C
:100030000C9451000C9451000C9451000C945100FC
:100040000C9451000C9451000C9451000C945100EC
:100050000C946E000C9451000C9451000C945100BF
:100060000C9451000C94510011241FBECFEFD8E026
:10007000DEBFCDBF11E0A0E0B1E0ECECF1E002C0EA
:1000800005900D92AA31B107D9F711E0AAE1B1E0CC
:1000900001C01D92AC39B107E1F70E94C2000C9477
:1000A000E4000C9400001092C50087E68093C40021
:1000B00088E48093C10086E08093C2000895909107
:1000C0001B01E92FF0E0E45EFE4F80839F5F909379
:1000D0001B0197FF02C010921A0108951F920F9200
:1000E0000FB60F9211248F939F93EF93FF939091EC
:1000F0001A0180911B01981781F0E92FF0E0E45E6E
:10010000FE4F80818093C600E92FEF5FE0931A01D4
:10011000E7FF03C0EF5FE0931A01FF91EF919F911A
:100120008F910F900FBE0F901F901895CF93DF9374
:100130009C0140E012C080911B01E82FF0E0E45EDA
:10014000FE4FC20FD31F988190838F5F80931B0156
:1001500087FF02C010921A014F5FC42FD0E0F9014F
:1001600001900020E9F73197E21BF30BCE17DF0770
:1001700010F38091C00085FF02C01092C600DF918D
:10018000CF9108951092C50087E68093C40088E45B
:100190008093C10086E08093C200789480E091E073
:1001A0000E94960088E091E00E94960088E99AE318
:1001B00020E931E0F9013197F1F70197D9F780E1B2
:0C01C00091E00E949600FFCFF894FFCF62
:1001CC0068656C6C6F0A0D00776F726C640A0D00B9
:0A01DC00476F6F644279650A0D0059
:00000001FF
