:100000000C9434000C9446000C9446000C9446006A
:100010000C9446000C9446000C9446000C94460048
:100020000C9446000C9446000C9446000C94460038
:100030000C9446000C9446000C9446000C94460028
:100040000C9448000C9446000C9446000C94460016
:100050000C9446000C9446000C9446000C94460008
:100060000C9446000C94460011241FBECFEFD8E03C
:10007000DEBFCDBF11E0A0E0B1E001C01D92A13014
:10008000B107E1F70E9466000C9479000C9400001F
:100090001F920F920FB60F9211248F93809100013F
:1000A0008F5F809300018F910F900FBE0F901F9074
:1000B000189585B5856085BD16BCEEE6F0E08081BB
:1000C00081608083789410920001089580E284B961
:1000D0000E94590090E2809100018C30E0F386B5D7
:1000E000883CC8F385B1892785B916BC10920001F8
:0600F000F2CFF894FFCFEF
:00000001FF
